:020000040800F2
:10000000C804002001010008090100080B010008D4
:100010000D0100080F010008110100080000000098
:1000200000000000000000000000000013010008B4
:100030001501000800000000170100081901000860
:100040001B0100081B0100081B0100081B01000820
:100050001B0100081B0100081B0100081B01000810
:100060001B0100081B0100081B0100081B01000800
:100070001B0100081B0100081B0100081B010008F0
:100080001B0100081B0100081B0100081B010008E0
:10009000352000081B0100081B0100081B01000897
:1000A0001B0100081B0100081B0100081B010008C0
:1000B0001B0100081B010008C51B00081B010008EC
:1000C0001B0100081B0100081B0100081B010008A0
:1000D0001B010008E91C00081B0100081B010008A7
:1000E0001B0100081B0100081B010008DFF80CD0F1
:1000F00000F076FB00480047E52A0008C80400200D
:100100000648804706480047FEE7FEE7FEE7FEE7B1
:10011000FEE7FEE7FEE7FEE7FEE7FEE7111B00084D
:10012000ED000008D2B201E000F8012B491EFBD21D
:1001300070470022F6E710B513460A4604461946F2
:10014000FFF7F0FF204610BD80EA010210B502F073
:100150000043400022D04A001FD0010E01EB126183
:10016000C0F35600C2F3560240F4000042F400020D
:10017000A0FB022000047F39140400D0401C50EA88
:10018000124001D44000491EC2B20C0604EBD0104C
:10019000401C4008802A02D003E0002010BD20F05F
:1001A0000100002900DA0020184310BD30B480EAB5
:1001B000010202F0004530F0004221F0004013D06F
:1001C00090B1C30DD40DC2F31601C0F31600E41AAA
:1001D00041F4000140F400027D34914201D3641CDB
:1001E00000E04900002C02DA30BC002070474FF4D8
:1001F00000000023914201D3891A034340084FEACB
:100200004101F7D151B1914202D14FF0004105E0D7
:1002100002D24FF0010101E06FF0010103EBC45085
:10022000284430BC00F0ECB8C10F80EAE07008440C
:10023000CA079623002100F0ECB89623002211464D
:1002400000F0E7B800F0004220F00040C10DC0F31C
:10025000160040F400007F2901DA0020704796293B
:1002600003DCC1F19601C84001E096398840002ABC
:10027000F4D04042704700F0004230F000400AD015
:10028000C10D01F56071C0F3160042EA0151C208C8
:1002900040071143704700200146704701F00043BA
:1002A00030B421F0004150EA010206D00A0DA2F557
:1002B0006072C1F31301002A02DC30BC00207047D9
:1002C000440F44EAC104C100E01830BC00EBC25046
:1002D00000F096B830B50B460146002020220124DC
:1002E00009E021FA02F59D4205D303FA02F5491B04
:1002F00004FA02F52844151EA2F10102F1DC30BD1A
:100300002DE9F05F0546002092469B46884606464A
:10031000814640241BE0284641464746224600F0DD
:1003200080FA53465A46C01A914110D311461846D6
:10033000224600F067FA2D1A67EB01084F46224665
:100340000120002100F05EFA17EB00094E41201E4B
:10035000A4F10104DFDC484631462A464346BDE8A5
:10036000F09F00000FB4002300B589B00CA90091E4
:100370000B996FF00042CB601E4B06931E4B079308
:100380000423CDE901321D4A089202466B46002043
:1003900000F0EEFA09B05DF814FB70B586B00646C1
:1003A0004FF0FF300091CDE90101002015460C46C9
:1003B00004903246694604A8FFF7D4FF0346049828
:1003C000211825B108B10A4600E022462A6000281B
:1003D0000DD0002B02DD0098884208D0081B009445
:1003E000CDE901043246694604A8FFF7BBFF06B019
:1003F00070BD0000A90B0008C70B000867080008C3
:100400000029A8BF7047401C490008BF20F0010028
:10041000704710B4B0FA80FC00FA0CF050EA010406
:1004200004BF10BC704749B1CCF1200421FA04F498
:1004300011FA0CF118BF012121430843A3EB0C0171
:10044000CB1D4FEA00614FEA102042BF002010BCD4
:10045000704700EBC35010440029A4BF10BC704784
:10046000401C490008BF20F0010010BC70472DE976
:10047000FE4F804681EA0300C00F0C46009021F039
:10048000004123F00045B8EB0200A94105D24046E7
:10049000214690461C460B46024623F0004010437E
:1004A00047D0270DC7F30A00C3F30A510290401A40
:1004B000019040286BDAC3F3130040F4801B0098CE
:1004C000924620B10023D2EB030A63EB0B0B019899
:1004D0005946C0F14002504600F094F906460D46D8
:1004E00050465946019A00F0ACF910EB0800614102
:1004F000002487EA115284EAE7731A4340D0009A35
:1005000062B3019A012A4FEA075215DC001B61EB26
:1005100002014FF0004202EA0752CDE90042001CFE
:1005200041F5801132462B4600F06DFB03B0BDE86B
:10053000F08F40462146F9E7001B61EB0201001CE9
:1005400041F5801300185B412018A2F5001747EB16
:10055000030140EAD570B6196D4111E06D084FEA0C
:10056000360645EAC0754FEA0752001B61EB0201EF
:10057000001C41F5801149084FEA30000019514133
:1005800032462B4603B0BDE8F04F00F02DBB00987B
:10059000012240000023D0EB020263EBE0730098DD
:1005A00021464FEAE074B8EB000061EB0401E9E793
:1005B00083F000435BE781F0004158E72DE9FE4FEF
:1005C00081EA030404F0004421F0004100944FF05C
:1005D000000B23F0004350EA01045ED052EA03040A
:1005E0005BD0C3F30A54C1F30A552C44A4F2F3348C
:1005F0000194A0FB0254C1F3130141F48011C3F331
:10060000130343F4801301FB024400FB034E840AEE
:10061000970A44EA815447EA8357A4FB0768029586
:100620008D0A05FB07854FEA932C04FB0C54270524
:10063000029D4FEA065847EA1637B5EB08056EEB00
:10064000070C870E920E47EA811742EA8312A7FB36
:100650000201B6EB0B0164EB00042B0D43EA0C33F3
:100660005E1844EB1C50DA465146E7FB0201C5F325
:1006700013044FEA0B3343EA14534FEA0432019C4C
:1006800043EA0603A4F10C040294009CCDE900B4F3
:1006900000F0B9FA03B0BDE8F08F00200146F9E799
:1006A0002DE9F04D81EA030404F0004B21F00045F0
:1006B00014464FF0000A23F0004150EA050220D012
:1006C00054EA01021DD0C5F30A570246C5F31303CD
:1006D000C1F31300C1F30A5640F4801543F48013AC
:1006E000A7EB0608101BD64608F2FD3873EB050091
:1006F00002D308F1010801E092185B41B8F1000F44
:1007000003DA00200146BDE8F08D00204FF480118F
:10071000064684460EE0171B73EB050705D3121B34
:1007200063EB050306434CEA010C49084FEA30002D
:1007300092185B4150EA0107EDD152EA030012D052
:1007400082EA040083EA0501084305D0101BAB418F
:1007500006D20122002306E000224FF0004302E00F
:100760006FF0010253101AEB06004CEB085110EB2E
:100770000A0041EB0B01BDE8F04D00F035BAC1F3C2
:100780000A52C1F3130140F2FF3341F480119A423F
:1007900002DA00200146704740F233439A42A2F247
:1007A000334202DC524200F03CB800F02BB80000AB
:1007B00030B5041E71F1000404DB4FF000444042E8
:1007C00064EB0101141E73F1000405DB1C464FF0BD
:1007D0000043524263EB0403994208BF904230BD8C
:1007E000064C074D06E0E06840F0010394E807007E
:1007F00098471034AC42F6D3FFF77CFC682C000815
:10080000882C0008202A04DB203A00FA02F100209C
:1008100070479140C2F1200320FA03F3194390403E
:100820007047202A04DB203A21FA02F000217047A9
:1008300021FA02F3D040C2F1200291400843194648
:100840007047202A06DBCB17203A41FA02F043EA30
:10085000E07306E041FA02F3D040C2F12002914079
:10086000084319467047C0B24FF4F05100F01ABA6D
:100870002DE9FF4F087881B09946FF2805D0491C23
:100880002D2804D00024002308E000230BE00124DD
:10089000F9E703EB830300EB4303491C0878FF28C7
:1008A000F7D104B15B4200200090147801462D2C52
:1008B00001D02B2C04D1521C2D2C12D000240094DA
:1008C00000251678FF2E0ED00A24A0FB04C801FBD9
:1008D0000481002700FB0711521C16EB0C00694134
:1008E000EFE70124EBE7994450EA01020ED000241F
:1008F000AA4D2646DFF8A88200F0E8F982468B462A
:10090000B9F1000009DAC9F100071BE001980021E4
:10091000C0E9001105B0BDE8F08F074612E0F80706
:1009200007D022462B4630464146FFF747FE064693
:10093000884622462B4610461946FFF73FFE0446DE
:100940000D467F10002FEAD1B9F1000F3246434621
:100950005046594602DAFFF7A3FE01E0FFF72EFEEC
:10096000009A0AB181F00041019AC2E90001D1E781
:100970002DE9FF4F1F468DB0D7E901464FF0FF38F4
:100980002E2045464FF000090B90B9696D1C0E985A
:100990008847396A824688470028F6D1BAF1FF3F76
:1009A0000AD024F4D064002E11DDBAF12B0F08D048
:1009B000BAF12D0F0BD102E0404611B0ABE744F481
:1009C0008064B9696D1C0E9888478246761E694618
:1009D000600501D52D2000E02B208DF8000001F1ED
:1009E000010B0DF1200809E0B9696D1C0E988847CC
:1009F00082460F9844F40074761E0560002E02DDD6
:100A0000BAF1300FF0D00B998A453ED144F0800402
:100A100006E00F99681CA9F1010944F4007408600C
:100A2000B9696D1C761E0E98884782463028F0D032
:100A30002BE00B998A4505D1200603D444F08004AD
:100A4000761E18E0504601F0E1FB08B30DF11301EA
:100A5000761E44F400748B4508D2AAF130000BF8DE
:100A6000010B200607D5A9F1010003E0200602D4FE
:100A700009F101008146A00502D50F99681C0860A4
:100A8000B9696D1C0E9888478246002ED1DC53E070
:100A9000002E51DDBAF1650F02D0BAF1450F4BD1EE
:100AA000A00549D5B9696D1C24F44074761E0E98D2
:100AB00088478246002E0CDD2B2804D0BAF12D0F7A
:100AC00007D144F48074B9696D1C0E98884782463A
:100AD000761EE00501D52D2100E02B2108F8011B31
:100AE000CDF82C8021E00DF12901761E44F400742C
:100AF00088450CD2AAF1300010F0FF0088F8000001
:100B000002D10B99884509D908F1010806E0E005F2
:100B100001D5244801E042F20F708146B9696D1C8D
:100B20000E98884782460F980560002E04DD5046D7
:100B300001F06CFB0028D6D1F9690E988847FF2098
:100B40008BF8000088F800000020069007904B46C4
:100B50006A4608A906A8FFF78BFEA00502D46FF02D
:100B600001002AE714F0240F0AD0E00714D1DDE9D0
:100B700006123868031D3B600068C0E900120BE0F4
:100B8000DDE90601FFF78AFB0146E00704D138687A
:100B9000021D3A600068016028460EE7000024400C
:100BA0000000F03FF1D8FFFF426842B1016811F840
:100BB000013B23B1521EC0E90012184670470121C3
:100BC000C160881E704742685AB1C368016843B962
:100BD00083688B4205D0491E521CC0E900120020D8
:100BE00070474FF0FF30704710B5141E73F10004CA
:100BF00008DA401C41F1000192185B411A4301D10F
:100C000020F0010010BD2DE9F04D92469B4611B138
:100C1000B1FA81F202E0B0FA80F220329046FFF79A
:100C2000F1FD04460F4640EA0A0041EA0B01534633
:100C30005A46084313D0114653EA010019D0C8F1AF
:100C400040025046FFF7EDFD05460E465046594618
:100C50004246FFF7D7FD084305D0012004E02046B7
:100C60003946BDE8F08D0020054346EAE0762C4386
:100C700037430A986305E40AA0EB08000022FD0A46
:100C800044EA47540A3002D500200146E9E701054D
:100C900010196941DDE9084500196941BDE8F04DC9
:100CA000A2E700007F2801D9002208E0064A02EBF3
:100CB0005002C007127800D1120902F00F02012081
:100CC0009040084070470000282C00080EB540F204
:100CD000334202920022CDE900221346FFF793FF30
:100CE00003B000BD00B589B00121042000F012FE60
:100CF0000121480600F0EEFD4FF48050ADF82000D1
:100D000003208DF8220018208DF8230008A92D4813
:100D100000F0C2FC4FF40060ADF8200048208DF8D0
:100D2000230008A9274800F0B7FC14208DF8000024
:100D300001208DF80300684600F084FD224800F091
:100D400045F800208DF81A008DF81B008DF81C0066
:100D500001208DF81D0000208DF81E008DF81F0069
:100D60008DF816008DF8170008208DF81800072060
:100D70008DF819000220ADF8140005A9124800F002
:100D8000CEF800208DF80E008DF80F0001208DF8B0
:100D900010000020ADF80400ADF80600ADF8080022
:100DA000ADF80A00ADF80C0001208DF8110001A883
:100DB00000F028F801220221034800F0A7F809B04A
:100DC00000BD0000000801400064004010B504466A
:100DD0000B48844209D10121480600F08BFD002117
:100DE0004FF0007000F086FD08E00121880600F059
:100DF00081FD00214FF0806000F07CFD10BD0000FF
:100E00000064004010B50021837A012202FA03F148
:100E10003D4A126842F001023B4B1A603A4A1C32CA
:100E200012688A43384B1C331A60027BCAB9364AAF
:100E30000C3212688A43344B0C331A604288C388E0
:100E400042EA0343304A4032847A42F8343002881E
:100E5000838842EA03432C4A4032847A02EBC4027C
:100E60005360027B012A19D1274A0C3212680A43C7
:100E7000254B0C331A604288038842EA0343224A16
:100E80004032847A42F83430C288838842EA03438D
:100E90001D4A4032847A02EBC4025360C27A3AB9E6
:100EA000194A121D12688A43174B1B1D1A6006E06F
:100EB000154A121D12680A43134B1B1D1A60028942
:100EC00032B9114A143212688A430F4B14331A6034
:100ED0000289012A06D10C4A143212680A430A4BCD
:100EE00014331A60427B012A06D1074A1C32126869
:100EF0000A43054B1C331A60034A126822F00102B0
:100F0000014B1A6010BD0000006600401AB1436931
:100F10000B43436102E043698B434361704730B543
:100F2000024600200023146824F0020414601468B0
:100F300044F00104146000E05B1C546804F00104F8
:100F40001CB94FF6FF74A342F6D1546804F00104B3
:100F50000CB900206CE08C79012C04D1146844F0A9
:100F60008004146003E0146824F080041460CC79D9
:100F7000012C04D1146844F04004146003E01468A8
:100F800024F0400414600C7A012C04D1146844F05D
:100F90002004146003E0146824F0200414604C7AE8
:100FA000012C04D1146844F01004146003E01468A8
:100FB00024F0100414608C7A012C04D1146844F0DD
:100FC0000804146003E0146824F008041460CC7A68
:100FD000012C04D1146844F00404146003E0146884
:100FE00024F0040414608C78A407CD7844EA0564E6
:100FF0000D7944EA05444D7944EA05540D886D1E87
:101000002C43D461146824F001041460002300E030
:101010005B1C546804F001041CB14FF6FF74A3423A
:10102000F6D1546804F001040CB1002000E0012066
:1010300030BD10B500F5D87303EB01131B6803F046
:1010400004031372137A53B900F5D87303EB011339
:101050001B6840F2FF7404EA5353136009E000F583
:10106000D87303EB01131B686FF0604404EAD303E9
:10107000536000F5D87303EB01131B6803F0020300
:10108000537200F5D87303EB01135B6803F00F0391
:10109000937200F5D87303EB01135B681B0AD374DA
:1010A00000F5D87303EB01139B68D37200F5D87376
:1010B00003EB01139B681C0A147300F5D87303EB50
:1010C00001139B681C0C547300F5D87303EB0113D8
:1010D0009B681B0E937300F5D87303EB0113DB6859
:1010E000D37300F5D87303EB0113DB681C0A147487
:1010F00000F5D87303EB0113DB681C0C547400F586
:10110000D87303EB0113DB681B0E937421B9C3681A
:1011100043F02003C36003E0036943F0200303614D
:1011200010BD10B502460020936803F08063B3F150
:10113000806F00D110E0936803F00063B3F1006F9B
:1011400001D1012008E0936803F08053B3F1805F80
:1011500001D1022000E00420042874D002F5C073FD
:1011600003EB00131B6803F0010402F5C07303EBEB
:1011700000131C600B7A7BB94B7A0C8843EA44530A
:1011800002F5C07404EB00142468234302F5C07414
:1011900004EB0014236010E00B7A4C6843EAC403AC
:1011A0004C7A234302F5C07404EB001424682343F3
:1011B00002F5C07404EB001423608B7A03F00F0374
:1011C0008B7202F5C07303EB00135B6823F00F040E
:1011D00002F5C07303EB00135C6002F5C07303EB10
:1011E00000135B688C7A234302F5C07404EB00148F
:1011F00063608B7B1C064B7B44EA03440B7B44EA15
:101200000323CC7A234302F5C07404EB0014A360DB
:101210008B7C1C064B7C44EA03440B7C44EA03238E
:10122000CC7B234302F5C07404EB0014E36002F5A9
:10123000C07303EB00131B6843F0010402F5C07395
:1012400003EB00131C6010BD10B50246002321B152
:10125000012907D002290FD109E090681D4C00EA4E
:1012600004030BE090681C4C00EA040306E090685D
:101270001A4C00EA040301E0002300BF00BF184C31
:10128000181BA34216D007DC83B16FF080601844AE
:1012900070B1022818D111E0B0F5007F10D0114CC8
:1012A000204448B1B0F5003F0ED10BE002230DE021
:1012B00000230BE0002309E0002307E0012305E001
:1012C000012303E0012301E0002300BF00BFD8B2E7
:1012D00010BD00000300000400030008000003101C
:1012E000000100080001FFF72DE9F04F87B04148E9
:1012F000006840F28151884278D13E48C07A2A285D
:101300001FD04B2802D080286FD16DE03948407B38
:10131000042815D13748017CC07B01EB002084B242
:101320002046FEF78AFF80463349FEF73FFF054619
:10133000FEF7A1FF064632460B4630A000F088FEBD
:1013400053E02C48007B4FFA80F94FEA09412948C5
:10135000407B01EB00212748807B08442B49086033
:101360002448017CC07B01EB002000B228490880A2
:101370002048817C407C01EB002000B22549088098
:101380000846B0F90000FEF74FFF83462249FEF7FA
:101390000DFF8246FEF76FFF05460E461C48B0F96A
:1013A0000000FEF741FF83461B49FEF7FFFE824621
:1013B000FEF761FF0746884614480068FEF734FFD1
:1013C00083461549FEF7F2FE8246FEF754FF0246B9
:1013D0000B46CDE90078CDE90256CDE904010FA016
:1013E00000F036FE01E001E000BF00BF07B0BDE83D
:1013F000F08F0000B400002000002041766F6C7474
:101400006167653D252E31660D0A00002800002029
:101410002C0000202E0000200000C842706F733D99
:10142000252E32662C76656C3D252E32662C637532
:10143000723D252E32660D0A000000002DE9F041B4
:1014400086B007460D469046CDF8048000200290F5
:101450008DF80C008DF80D008DF80E50002404E07E
:10146000395D0DF10F000155641CAC42F8D301A9A0
:101470000D48FFF756FE0646002400E0641C314686
:101480000948FFF7E1FE012803D047F6FF708442C8
:10149000F4D347F6FF70844203D3012006B0BDE8C1
:1014A000F0810020FAE700000064004021B10268EA
:1014B00042F00102026004E002684FF6FE731A4037
:1014C0000260704701684FF6FE7211400160002112
:1014D000016041608160C1604B49884208D14A493E
:1014E0000839496841F00F01474A083A51608AE0DB
:1014F00045491431884208D143490839496841F0C7
:10150000F001414A083A51607DE03F492831884264
:1015100008D13D490839496841F470613A4A083AAE
:10152000516070E038493C31884208D13649083969
:10153000496841F47041344A083A516063E03249E5
:101540005031884208D130490839496841F4702146
:101550002D4A083A516056E02B496431884208D13F
:1015600029490839496841F47001274A083A51600D
:1015700049E025497831884208D12349083949682A
:1015800041F07061204A083A51603CE01F498842AE
:1015900006D1011F096841F00F01021F116032E0FE
:1015A0001A491431884208D11849091F096841F0C5
:1015B000F001164A121F116025E0144928318842B3
:1015C00008D11249091F096841F470610F4A121FBE
:1015D000116018E00D493C31884208D10B49091FC0
:1015E000096841F47041094A121F11600BE0074974
:1015F0005031884207D10549091F096841F470211B
:10160000024A121F1160704708000240080402409D
:101610000146486880B2704710B50022026847F65C
:10162000F0739A430C6A8B6823430C6923434C691B
:1016300023438C692343CC6923434C6A23438C6A3C
:1016400023431A430260CB6843600B6883604B6896
:10165000C36010BD08B50121112000F05BF9012124
:101660000B4800F0A5F84FF40050ADF80000102032
:101670008DF8030001208DF802006946054800F04E
:101680000BF84FF40051034800F0DAF808BD0000F1
:1016900000023000001001402DE9F0410246002513
:1016A0000026002000230024002791F803C00CF03E
:1016B0000F0591F803C00CF0100CBCF1000F03D023
:1016C00091F802C04CEA050591F800C0BCF1000F8A
:1016D00031D0146800202BE04FF0010C0CFA00F31D
:1016E000B1F800C00CEA03069E4220D183004FF0FF
:1016F0000F0C0CFA03F7BC4305FA03FC4CEA040494
:1017000091F803C0BCF1280F06D14FF0010C0CFA80
:1017100000FCC2F814C00AE091F803C0BCF1480F05
:1017200005D14FF0010C0CFA00FCC2F810C0401CAF
:101730000828D1D31460B1F800C0BCF1FF0F34DD2C
:10174000546800202EE000F1080C4FF0010808FA60
:101750000CF3B1F800C00CEA03069E4221D18300CD
:101760004FF00F0C0CFA03F7BC4305FA03FC4CEAEC
:10177000040491F803C0BCF1280F05D100F1080C56
:1017800008FA0CF8C2F8148091F803C0BCF1480FB5
:1017900007D100F1080C4FF0010808FA0CF8C2F864
:1017A0001080401C0828CED35460BDE8F0810000B2
:1017B000F0B50A46002300240021002500F0004671
:1017C000B6F1004F02D11D4EF16901E01B4E716868
:1017D000C0F3034583B200F44016B6F5401F08D1AC
:1017E00021F07061154E766826F07066134F7E60AA
:1017F00012E000F48016B6F5801F06D1032606FA23
:1018000005F4A14341F0706106E0460D360103FA8C
:1018100006F6B14341F0706122B1460D360103FA7C
:1018200006F6314300F00046B6F1004F02D1034EF8
:10183000F16101E0014E7160F0BD00000000014067
:101840004161704770B5002100230F22C47804B3B2
:10185000154C246804F4E064C4F5E064210AC1F185
:101860000403CA40447804FA03F184781440214305
:1018700009010E4C0678A155047804F01F050124D7
:10188000AC4005786D11AD0005F1E025C5F80041CB
:1018900009E0047804F01F050124AC40044D0678EB
:1018A000761145F8264070BD0CED00E000E400E044
:1018B00080E100E029B1064A52690243044B5A61B3
:1018C00004E0034A52698243014B5A6170470000A9
:1018D0000010024029B1064AD2690243044BDA6182
:1018E00004E0034AD2698243014BDA617047000089
:1018F0000010024029B1064A12690243044B1A61E2
:1019000004E0034A12698243014B1A6170470000E8
:101910000010024029B1064A92690243044B9A61C1
:1019200004E0034A92698243014B9A6170470000C8
:101930000010024029B1064AD2680243044BDA6023
:1019400004E0034AD2688243014BDA60704700002A
:101950000010024030B500210022002400232D4D4C
:101960006D6805F00C0121B1042905D0082923D1A7
:1019700005E0294D056022E0274D05601FE0254D5B
:101980006D6805F47012234D6D6805F480340225EE
:1019900005EB92421CB9214D554305600BE01D4DEE
:1019A0006D6805F400351DB11C4D5543056002E01E
:1019B000194D5543056002E0174D056000BF00BF9B
:1019C000144D6D6805F0F0010909154D6B5C056853
:1019D000DD4045600F4D6D6805F4E061090A104D6A
:1019E0006B5C4568DD4085600A4D6D6805F46051AB
:1019F000C90A0B4D6B5C4568DD40C560054D6D68DF
:101A000005F44041890B074D6B5CC568B5FBF3F5E8
:101A1000056130BD0010024000127A0000093D004F
:101A2000000000201000002010B500F001F810BDEB
:101A30000CB50020019000903348006840F48030DD
:101A40003149086000BF3048006800F40030009061
:101A50000198401C0190009818B90198B0F5A06F4A
:101A6000F1D12948006800F4003010B10120009045
:101A700001E0002000900098012843D1234800682D
:101A800040F01000214908600846006820F003007B
:101A900008600846006840F0020008601A48406884
:101AA000194948600846406848600846406840F464
:101AB000806048600846406820F47C104860084612
:101AC000406840F4E81048600846006840F08070C4
:101AD000086000BF0C48006800F000700028F9D0D2
:101AE0000948406820F003000749486008464068FC
:101AF00040F00200486000BF0348406800F00C005E
:101B00000828F9D10CBD000000100240002002405E
:101B100010B51348006840F00100114908600846FC
:101B20004068104908400E494860084600680E4960
:101B300008400B4908600846006820F480200860CF
:101B40000846406820F4FE0048604FF41F0088609B
:101B5000FFF76AFF4FF000600449086010BD000005
:101B6000001002400000FFF8FFFFF6FE08ED00E065
:101B70001FB501210420FFF7ADFE1E208DF80000E7
:101B800001208DF803006846FFF75CFE40F2E73065
:101B9000ADF808004720ADF804000020ADF80600BD
:101BA000ADF80A0001A9064800F04CF801221146E0
:101BB000034800F03DF80121014800F01CF81FBD6A
:101BC0000008004010B50121074800F020F8012866
:101BD00004D106480068401C0449086001210248FD
:101BE00000F006F810BD00000008004014000020BE
:101BF000CA430282704721B1028842F0010202808A
:101C000004E002884FF6FE731A400280704730B538
:101C10000246002000230024158A05EA0103958965
:101C200005EA010413B10CB1012000E0002030BD31
:101C30001AB183890B43838102E083898B438381BB
:101C400070470000002202881D4B98420ED01D4BA9
:101C500098420BD0B0F1804F08D01B4B984205D072
:101C60001A4B984202D01A4B984204D14FF68F7308
:101C70001A404B881A43174B984207D0164B98428C
:101C800004D04FF6FF431A40CB881A4302808B885A
:101C900083850B8803850A4B98420BD0094B9842E9
:101CA00008D00E4B984205D00D4B984202D00D4BF8
:101CB000984201D10B7A038601238382704700008A
:101CC000002C0140003401400004004000080040A6
:101CD000000C004000100040001400400040014093
:101CE000004401400048014010B50F4800880F49EA
:101CF00008700D48001D008808700D48FFF788FC2B
:101D0000C0F140000949087000210948FFF7CEFBE7
:101D1000402007495839C86501210548FFF7C6FB2F
:101D200001200449087010BD00380140180000204F
:101D3000580002401900002010B592B0044601215D
:101D400044F20400FFF7E6FD01210846FFF7B2FD6B
:101D50004FF40070ADF8440018208DF847000320C0
:101D60008DF8460011A93048FFF796FC4FF48060CB
:101D7000ADF8440004208DF8470011A92A48FFF768
:101D80008BFC25208DF8400001208DF8430010A821
:101D9000FFF758FD254800F06DF80C940020ADF8D1
:101DA0003400ADF83600ADF83800ADF83C000C203A
:101DB000ADF83A000CA91D4800F0D0F840211B48AE
:101DC00000F03AF80121194800F03FF8012240F2F2
:101DD0002441164800F09CF81548FFF773FB1348A0
:101DE000001D0190134802900020039040200490B1
:101DF0000020059080200690002007900890202069
:101E0000099000020A9000200B9001A90848FFF7F2
:101E100003FC01210648FFF749FB0122402103484A
:101E200000F01FF812B010BD00080140003801405A
:101E3000580002403400002001F40072B2F5007F27
:101E400000D100BFCA430280704721B1828942F4A9
:101E50000052828104E082894DF6FF731A4082812C
:101E600070471AB1838A0B43838202E0838A8B43D3
:101E70008382704710B504462048844209D101216D
:101E80008803FFF757FD00214FF48040FFF752FD14
:101E900032E01B48844209D101214804FFF72AFDA2
:101EA00000214FF40030FFF725FD25E0154884425E
:101EB00009D101218804FFF71DFD00214FF4802086
:101EC000FFF718FD18E01048844209D10121C80429
:101ED000FFF710FD00214FF40020FFF70BFD0BE092
:101EE0000A48844208D101210805FFF703FD0021BB
:101EF0004FF48010FFF7FEFC10BD000000380140D9
:101F00000044004000480040004C004000500040A9
:101F1000F0B50346002400260025002040F66A178D
:101F2000B94200D100BF1846C1F3421401F01F06A8
:101F3000012707FA06F5012C01D10C3004E0022C30
:101F400001D1103000E014301AB107682F43076048
:101F500002E00768AF430760F0BD00002DE9F047DD
:101F600086B005460E460024A24600BFA1460027C3
:101F7000B08900B100BF2F462C8A4CF6FF70044098
:101F8000F08804432C82AC894EF6F3100440B088EC
:101F900031890843718908430443AC81AC8A4FF608
:101FA000FF400440B0890443AC8201A8FFF7D2FC93
:101FB0001F48874202D1DDF810A001E0DDF80CA037
:101FC000A88900F4004040B10AEBCA0000EB0A10F7
:101FD00031684900B0FBF1F807E00AEBCA0000EBFA
:101FE0000A1031688900B0FBF1F86420B8FBF0F00A
:101FF00004012009642101FB1089A88900F4004034
:1020000040B1322000EBC900B0FBF1F000F0070056
:10201000044308E0322000EB09106421B0FBF1F02A
:1020200000F00F0004432C8106B0BDE8F0870000EB
:102030000038014010B5044A00210448FEF7F9FFBA
:10204000FFF752F910BD0000B4000020006400400A
:102050000FB4054B10B503A9044A029800F0DEF84E
:1020600010BC5DF814FB0000C92A00081C00002009
:1020700001480068704700003000002002E008C8F6
:10208000121F08C1002AFAD170477047002001E0F2
:1020900001C1121F002AFBD17047000001490860EE
:1020A00070470000300000202DE9FF5FDDE90220CD
:1020B000010DDDF838B0024318D044F61050A1F2FB
:1020C000FF3141430D140F98012820D0A5EB0B00E0
:1020D000401C5FEA000A4FF00004474EDFF81C91F5
:1020E000A046504616D5CAF1000728E00F980124F3
:1020F00043A2012808D0002100980F9BC0E90021CD
:10210000C0E90243BDE8FF9F6FEA0B01F4E7CBF1A2
:102110000000DEE7074612E0F80707D02246334604
:1021200040464946FEF74AFA8046894622463346EB
:1021300010461946FEF742FA04460E467F10002F5D
:10214000EAD1DDE90201BAF1000F42464B4602DA5C
:10215000FEF734FA01E0FEF7A3FA04460E46002229
:10216000284BFEF725FB03D84FF0FF30014607E070
:102170000022254B20463146FEF779F9FEF7FFFA9B
:10218000102409E0002C0ADB0A220023FEF7B8F82D
:10219000019B30321A55641E50EA0102F2D1641CD0
:1021A000019AC4F1110314440F9A012A03D00122A9
:1021B00008430DD10AE0084304D000204FF0110B72
:1021C0000F9080E7A3EB0B056D1E0DE05B4504DD72
:1021D0004FF0000205F1010504E003DA4FF00002C0
:1021E000A5F10105002AECD000980F99C0E9023151
:1021F000C0E9004586E70000000024400000F03FF1
:10220000300000000000F0430000E03F30380A28B2
:1022100001D2012070470020704700002DE9FF4FD8
:1022200095B09B468946064600250FE2252877D1C2
:1022300000242746F84A0121059400E0044316F8DB
:10224000013F203B01FA03F01042F7D130782A28F1
:1022500011D06FF02F033078A0F13002092A16D880
:10226000059A44F0020402EB820203EB420210449E
:10227000761C0590EFE759F8042B0592002A03DA43
:10228000504244F40054059044F00204761C307827
:102290002E2816D116F8010F44F004042A280DD078
:1022A0006FF02F023078A0F13003092B09D807EB2B
:1022B000870302EB4303C718761CF3E759F8047B46
:1022C000761C30786C280FD006DC4C2817D0682894
:1022D0000DD06A2814D104E0742810D07A280FD1C8
:1022E0000DE044F400140AE044F4801401E044F4E6
:1022F00040147278824202D104F58014761C761C58
:10230000307866280BD013DC582877D009DC0028F9
:1023100075D04528F6D04628F4D047281AD19DE13B
:1023200018E0632835D0642879D0652812D195E16A
:10233000702873D008DC6728F1D069286FD06E2828
:102340000DD06F2806D1B5E073282CD0752875D034
:10235000782874D05A46179990476D1C75E1C4F3DC
:102360000250022809D003280DD0D9F80010042803
:102370000DD00D6009F1040967E1D9F80010EA17E2
:10238000C1E90052F6E7D9F800100D80F2E70D70B0
:10239000F0E719F8041B8DF8001000208DF80100FB
:1023A000EA46012003E059F804AB4FF0FF30610723
:1023B0004FF0000102D40DE008F101018846B94256
:1023C0000FDA8045F8DB1AF808100029F4D108E08C
:1023D00008F1010188468142FADB1AF80810002949
:1023E000F6D105985B46A0EB080721463846179AB8
:1023F00000F094FA284400EB080507E04DE029E1DD
:102400000DE01AF8010B5A4617999047B8F10108E8
:10241000F7D25B4621463846179A13E142E00A227A
:102420000092C4F302524FF0000A022A08D059F871
:1024300004CB032A4FEAEC710AD00DE029E02AE030
:1024400009F1070121F00702F2E802C1914609E013
:102450000FFA8CFC4FEAEC71042A03D14FFA8CFC82
:102460004FEAEC71002907DA0A460021DCF1000C82
:1024700061EB02012D2202E0220504D52B228DF80A
:102480000420012203E0E20701D02022F7E7904672
:1024900059E00A2102E010220DE010214FF0000A5D
:1024A00000910BE010224FF0000A44F004040827CA
:1024B000009203E008224FF0000A0092C4F3025297
:1024C000022A05D059F804CB0021032A08D009E0DC
:1024D00009F1070121F00702F2E802C1914605E087
:1024E0001FFA8CFC042A01D10CF0FF0C4FF00008FD
:1024F000220728D5702806D0009B83F0100353EAEA
:102500000A0305D00EE040228DF80420012208E0E5
:102510005CEA010206D030228DF804208DF8050017
:1025200002229046009B83F0080353EA0A030AD173
:102530005CEA010201D1620705D530228DF8042042
:102540004FF001087F1E582804D034A003900EA835
:1025500002900DE036A0F9E753466046009AFDF779
:10256000CFFE84460398825C0298401E029002705F
:102570005CEA0100F0D1029806A9081A00F1200ACD
:10258000600702D524F4803400E00127574502DDBE
:10259000A7EB0A0000E0002000EB0A01009005987C
:1025A0004144401A0590E00306D45B462146179A41
:1025B000059800F0B3F90544002706E001A85A4643
:1025C000C05D179990476D1C7F1C4745F6DBE00303
:1025D0000CD55B462146179A059800F09FF90544F3
:1025E00004E030205A46179990476D1C0099481E08
:1025F00000900029F5DC08E0029802995A4600781C
:10260000491C0291179990476D1CBAF10001AAF17B
:10261000010AF1DC65E100000928010030313233A4
:10262000343536373839616263646566000000000E
:1026300030313233343536373839414243444546F8
:102640000000000000F058F90544761C307800289E
:102650007FF4ECAD19B02846BDE8F08F620700D4D6
:10266000062709F1070222F0070CFCE80223E146E5
:1026700003F000485FEA080C02D00FF2702C0DE066
:102680005FEA045C02D50FF2682C07E05FEAC47CC5
:1026900002D00FF2602C01E0AFF2700C4FF0FF3867
:1026A00023F00043CDF850C065280CD006DC452847
:1026B00009D046281DD047283DD13DE0662818D0D6
:1026C00067287ED138E00021112F01DB112000E0C6
:1026D000781CCDE9000106A90EA8FFF7E5FCDDE9AD
:1026E0000F010E9A03910021009207F1010A049153
:1026F0004DE04FF000400097CDE9011006A90EA86B
:10270000FFF7D2FCDDE90F0203920E9B1199002224
:10271000DDF80CA00093049211B9791C00EB010ABA
:10272000B7EB0A0004D4C0F1FF3007F1010A0490AE
:10273000AAEB0700019044E0012F00DA01270021F5
:10274000112F01DD112000E03846CDE9000106A976
:102750000EA8FFF7A9FCDDE90F010E9A03910021F5
:1027600004910092BA4621070CD40399514500DA2E
:102770008A46BAF1010F05DD009AAAF10101515C08
:10278000302908D0B84202DA10F1040F06DA01212C
:10279000CDE9011015E0AAF10101E9E7002805DC07
:1027A000049901440491AAEB000102E0411C514547
:1027B00000DD8A460499401A401C01904FF0004009
:1027C0000290200704D40198504501DBCDF8048025
:1027D00000208DF84F0002980DF14F07B0F1004F27
:1027E00025D02B200E9002984FF0020800280CDA1A
:1027F000404202902D200E9007E00A210298FDF73A
:1028000069FD3031029007F8011DB8F10001A8F10F
:102810000108F2DC02980028EFD1791E0E980870AA
:10282000307800F0200040F0450007F8020D12A8B3
:10283000C01B00F107081498007800B1012000EBDC
:102840000A01019801EBE07105984144401A401ECD
:102850000590E00306D45B462146179A059800F0E0
:102860005DF805441498007818B15A4617999047B6
:102870006D1CE00324D55B462146179A059800F0AD
:102880004DF805441CE00498002807DBDDE903014E
:10289000884203DD0098405C179901E017993020C9
:1028A0005A469047049805F10105401C0490019890
:1028B000401E019004D12E205A46179990476D1C56
:1028C000BAF10001AAF1010ADDDC05E017F8010BFD
:1028D0005A46179990476D1CB8F10001A8F10108FC
:1028E000F4DC5B462146179A0598ABE62D00000004
:1028F0002B000000200000002DE9F04104460025D7
:102900001E461746880404D405E039462020B04707
:102910006D1C641EF9D52846BDE8F0812DE9F04113
:10292000044600251E469046C80301D5302700E026
:102930002027880404D505E041463846B0476D1C81
:10294000641EF9D52846BDE8F08130B583B0044651
:10295000FFF78EFB05460020CDE900000246214628
:102960006846FDF71AFD2846FFF798FBDDE90001F0
:1029700003B030BD70B504460D46164625200A4901
:102980000870200E4870200C8870200AC8700C71E6
:10299000281248718D710846C67140F20162082103
:1029A000FEF74CFD70BD00002000002010B504466D
:1029B00023200B49087000204870232088700020D5
:1029C000C870200E0871200C4871200A8871CC71E3
:1029D00040F2016208210248FEF730FD10BD000000
:1029E0002000002010B5044623200B490870002069
:1029F0004870252088700020C870200E0871200CB7
:102A00004871200A8871CC7140F2016208210248A5
:102A1000FEF714FD10BD00002000002010B52B2093
:102A20000A49087000204870A22088700020C870F1
:102A300008710120487100208871C87140F201625C
:102A400008210248FEF7FAFC10BD0000200000201B
:102A500010B54B2009490870002048700420887088
:102A60000020C870087148718871C87140F2016215
:102A700008210248FEF7E2FC10BD00002000002003
:102A8000014642F228324A434FF0E0235A610022C5
:102A90009A611A46126942F001021A6100BF4FF0B2
:102AA000E022106900F001021AB100F48032002A1D
:102AB000F5D04FF0E022126922F001024FF0E0233E
:102AC0001A6100229A61704700BF054A128802F01D
:102AD0004002002AF9D0C2B2014B1B1D1A80704778
:102AE00000380140FEF7B6FD4FF4E130FFF724F95E
:102AF000FEF7F8F8FFF73CF84FF4FA70FFF7C0FF65
:102B00004FF4FA70FFF7BCFF0BA0FFF7A1FAFFF735
:102B100085FF0FE00B480068B0F5FA7F08D300206E
:102B2000084908600848C06880F400500649C86039
:102B300000F00CF8EEE7000043414E2064656D6F35
:102B40002E0D0A00140000200010014070B52F481F
:102B5000007800B970BD00202C4908702C4800781E
:102B600048280AD004DC41280ED0422847D11EE074
:102B700050282FD0522842D103E026A0FFF768FA50
:102B80003DE0FFF765FF3AE02148401CFFF7DDFE1E
:102B90000546FDF783FB044622492046FDF7D4FA9B
:102BA0000646FDF74FFB0546FFF700FF27E01848F4
:102BB000401CFFF7CAFE0546FDF770FB04461949A5
:102BC0002046FDF7C1FA0646FDF73CFB0546FFF738
:102BD00009FF14E00E48401CFFF7B7FE0546FDF75D
:102BE0005DFB04460F492046FDF7AEFA0646FDF7A9
:102BF00029FB054650227821FFF7BCFE00BF00BF2D
:102C000010210348FDF795FA00BFA3E71900002043
:102C10003400002048656C6C6F20576F726C642123
:102C20000D0A00000000C842DDDDDDDDDCBBBBDDE0
:102C3000DDDDDDDDDDDDDDDD98888888888888885C
:102C4000777777777788888885555556666666667C
:102C5000666666666668888883333332222222225B
:102C6000222222222228888D882C000800000020A1
:102C7000340000007C200008BC2C00083400002038
:102C8000940400008C2000080000000001020304EE
:102C900001020304060708090204060800000000F8
:102CA0000000000000000000000000000000000024
:0C2CB00000000000000000000000000018
:04000005080000ED02
:00000001FF
